:200000001DC037C014C135C034C0C7C032C031C030C02FC02EC02DC02CC02BC02AC0000069
:200020000000370000000000380001030000040002020202020201020408102011241FBEEC
:20004000CFE5D2E0DEBFCDBF10E0A0E6B0E0E2E4F5E002C005900D92A436B107D9F720E018
:20006000A4E6B0E001C01D92A138B207E1F72ED166C2C6CF3FB7F89480916E0090916F003F
:20008000A0917000B091710022B708B601FE05C02F3F19F00196A11DB11D3FBFBA2FA92F59
:2000A000982F8827BC01CD01620F711D811D911D43E0660F771F881F991F4A95D1F7089523
:2000C00090E0FC01E65DFF4F3491FC01EA5CFF4F2491FC01E05DFF4FE491EE23B9F033230A
:2000E00029F03130A1F48AB58F778ABDF0E0EE0FFF1FEC5DFF4FA591B4918FB7611118C0D8
:20010000F894EC9120952E232C938FBF0895323019F48AB58F7DE9CF333021F480B78F7DF9
:2001200080BFE4CF343011F78CB58F7D8CBDDECFF894EC912E2BE8CFCF93DF9390E0FC01C4
:20014000EA5CFF4F2491805D9F4FFC0184918823D1F090E0880F991FFC01E25EFF4FA5918D
:20016000B491FC01EC5DFF4FC591D491623071F49FB7F8943C91822F809583238C93E88151
:200180002E2B28839FBFDF91CF9108958FB7F894EC912E2B2C938FBFF6CF1F920F920FB6FF
:2001A0000F9211242F933F938F939F93AF93BF9380916A0090916B00A0916C00B0916D009B
:2001C0003091690026E0230F2D3768F129E8230F0396A11DB11D2093690080936A009093DC
:2001E0006B00A0936C00B0936D0080916E0090916F00A0917000B09171000196A11DB11DC0
:2002000080936E0090936F00A0937000B0937100BF91AF919F918F913F912F910F900FBE98
:200220000F901F9018950296A11DB11DD4CF1F920F920FB60F9211240F931F932F933F9327
:200240004F935F936F937F938F939F93AF93BF93EF93FF930FDFB39927C02091680022233B
:2002600019F100916400109165002091660030916700601B710B70937400609373001092C4
:200280006800FF91EF91BF91AF919F918F917F916F915F914F913F912F911F910F910F90A7
:2002A0000FBE0F901F901895B39BEBCF209168002111E7CF60936400709365008093660035
:2002C0009093670081E080936800DBCF83E08ABD83BF789489B7826089BF80E48CBD8FEF81
:2002E0008DBD87EC80BF86E886B962E083E024DF61E080E021DF61E081E01EDF60E080E0CD
:20030000DFDE60E081E0DCDE05E710E07801D0E0C0E0CE01D9D0F70181937F012196CC3069
:20032000D105B9F780917D0090917E00A0917F00B0918000873F9647A54EB24481F186ED28
:2003400096E0909377008093760082EE94E0909379008093780081E080937A0010927B00EE
:2003600084E080937C0087EF96E7A5EEB2E480937D0090937E00A0937F00B0938000D0E018
:20038000C0E0F801F1908F01CE019ED0F81619F06F2DCE01A1D02196CC30D10591F7809161
:2003A00075008F3F09F081BF80917C0090E001969093610080936000F8948BB780628BBF3C
:2003C000AB9A789411E0209173003091740080917C00609162007091630090E08BD0820FE2
:2003E000931F609160007091610095D070936300609362008091780090917900861797071A
:2004000090F520917600309177006217730758F580917A00882319F060E080E051DE809199
:200420007B00882319F060E081E04ADE1093720021DEEB0182E3C82ED12CE12CF12C1ADE4A
:200440006C1B7D0B683E7340C0F1C114D104E104F10409F4B8CFF1E0CF1AD108E108F10806
:20046000C851DC4FECCF6817790788F480917200882369F080917A0061E0811103C066B341
:200480006095617080E01CDE10927200D1CF80917600909177008617970750F68091720065
:2004A000882331F280917B0061E0811104C066B366956170612781E0E6CFC114D104E10439
:2004C000F10409F0BCCF7FCFE199FECF9FBB8EBBE09A99278DB30895262FE199FECF1CBAE2
:2004E0009FBB8EBB2DBB0FB6F894E29AE19A0FBE019608950024552704C0080E591F880F9F
:20050000991F009729F076956795B8F37105B9F7802D952F0895AA1BBB1B51E107C0AA1F30
:20052000BB1FA617B70710F0A61BB70B881F991F5A95A9F780959095BC01CD010895F89407
:06054000FFCF0600DC0500
:00000001FF
