:200000001DC037C050C135C034C003C132C031C030C02FC02EC02DC02CC02BC02AC00000F0
:200020000000370000000000380001030000040002020202020201020408102011241FBEEC
:20004000CFE5D2E0DEBFCDBF10E0A0E6B0E0EEEBF8E002C005900D92A637B107D9F720E0FF
:20006000A6E7B0E001C01D92AC39B207E1F76AD124C4C6CF3FB7F89480917C0090917D0018
:20008000A0917E00B0917F0022B708B601FE05C02F3F19F00196A11DB11D3FBFBA2FA92F3D
:2000A000982F8827BC01CD01620F711D811D911D43E0660F771F881F991F4A95D1F7089523
:2000C00090E0FC01E65DFF4F3491FC01EA5CFF4F2491FC01E05DFF4FE491EE23B9F033230A
:2000E00029F03130A1F48AB58F778ABDF0E0EE0FFF1FEC5DFF4FA591B4918FB7611118C0D8
:20010000F894EC9120952E232C938FBF0895323019F48AB58F7DE9CF333021F480B78F7DF9
:2001200080BFE4CF343011F78CB58F7D8CBDDECFF894EC912E2BE8CFCF93DF9390E0FC01C4
:20014000EA5CFF4F2491805D9F4FFC0184918823D1F090E0880F991FFC01E25EFF4FA5918D
:20016000B491FC01EC5DFF4FC591D491623071F49FB7F8943C91822F809583238C93E88151
:200180002E2B28839FBFDF91CF9108958FB7F894EC912E2B2C938FBFF6CF1F93CF93DF9390
:2001A000182FEB0161E0C8DF209731F460E0812FDF91CF911F9184CFCF3FD10511F461E05B
:2001C000F6CFE12FF0E0E65DFF4FE491E13041F48AB580688ABDC9BDDF91CF911F9108951D
:2001E000E23029F48AB580628ABDC8BDF5CFE33029F480B7806280BFCEBDEECFE43029F41E
:200200008CB580628CBDCBBDE7CFC038D105BCF6CDCF1F920F920FB60F9211242F933F9397
:200220008F939F93AF93BF938091810090918200A0918300B091840030917B0026E0230FB4
:200240002D3768F129E8230F0396A11DB11D20937B008093810090938200A0938300B09319
:20026000840080917C0090917D00A0917E00B0917F000196A11DB11D80937C0090937D000E
:20028000A0937E00B0937F00BF91AF919F918F913F912F910F900FBE0F901F90189502967C
:2002A000A11DB11DD4CF1F920F920FB60F9211240F931F932F933F934F935F936F937F9352
:2002C0008F939F93AF93BF93EF93FF93D3DEB39927C020917A00222319F10091760010911C
:2002E00077002091780030917900601B710B70938B0060938A0010927A00FF91EF91BF91A6
:20030000AF919F918F917F916F915F914F913F912F911F910F910F900FBE0F901F90189526
:20032000B39BEBCF20917A002111E7CF6093760070937700809378009093790081E0809324
:200340007A00DBCF83E08ABD83BF789489B7826089BF80E48CBD8FEF8DBD87EC80BF86E882
:2003600086B990E080E017D2809380008F3F09F4F1C181BF62E083E0DFDE62E084E0DCDE73
:2003800061E080E0D9DE61E081E0D6DE70E060E080E003DF70E060E081E0FFDE61E082E06C
:2003A000CBDE0CE810E07801C1E0D0E0CE01F3D1F70181937F012196C131D105B9F7809187
:2003C000980090919900A0919A00B0919B0080339144AB4AB105E1F18CED95E090938D0081
:2003E00080938C0084EF91E090938F0080938E00909391008093900082E3809392009FEF38
:200400009093930089E180939400909395008093960085E08093970080E391E4ABEAB0E0A8
:200420008093980090939900A0939A00B0939B00C1E0D0E0F801F1908F01CE01ACD1F816F5
:2004400019F06F2DCE01AFD12196C131D10591F780918C0090918D002091920030E0AC0156
:20046000420F531F50936D0040936C00AC01421B530B50936F0040936E0020918E0030912F
:200480008F00280F391F30936500209364002091900030919100821B930B90936B00809390
:2004A0006A008091930090E090936300809362008091940090E090936100809360008091A6
:2004C000950090E090936700809366008091960090E09093690080936800809197008111BC
:2004E00003C081E0809397008091970090E001969093730080937200F8948BB780628BBF6A
:20050000AB9A789494E1292E312C28EEC22E23E0D22E20918A0030918B0080919700609138
:2005200074007091750090E0A3D1820F931F6091720070917300ADD1709375006093740076
:200540008FB7F894409181005091820060918300709184008FBF80917000909171004497DF
:2005600020F43092710020927000B499F7C08091860090918700A0918800B09189008A01C1
:200580009B01081B190B2A0B3B0B8091700090917100B0E0A0E080179107A207B30788F4CC
:2005A0004093860050938700609388007093890061E080918500811160E06093850082E0EE
:2005C0007FDDC0917400D091750000916E0010916F00E0906C00F0906D000C171D0718F4F9
:2005E000CE15DF0518F0CA30D10500F570E060E080E0D3DD70E060E081E0CFDDD092710057
:20060000C092700037DD5B0182E3482E512C612C712C30DD6A197B09683E734008F4B4C049
:20062000411451046104710409F0A4C0C017D10708F045C070E060E080E0AFDD80906A0037
:2006400090906B00CE0188539F4F8819990990937100809370004090660050906700712C03
:20066000612CB12CA12C609168007091690090E080E064197509860997099E0150E040E097
:20068000281939094A095B099CD030E020E0A9019801281939094A095B09ACD0420E531EEA
:2006A000641E751EB2016F3F710519F014F06FEF70E077FF02C070E060E081E06EDDEC161D
:2006C000FD0608F026CF70E060E081E066DD0091640010916500C80188539F4F8C1B9D0B1A
:2006E00090937100809370008090600090906100B12CA12C2701712C612C609162007091A2
:20070000630090E080E0681979098A099B099E0150E040E0241935094609570952D030E021
:2007200020E0A9019801241935094609570962D0820E931EA41EB51EB4016F3F710519F062
:2007400014F06FEF70E077FF02C070E060E080E024DDDFCE81B7809380000CCE70E060E0DC
:2007600080E01BDD70E060E081E017DD61E082E0A7DCCFCE51E0451A51086108710888E145
:20078000A81A8CEFB80A45CF411451046104710409F03FCF4BCFE199FECF9FBB8EBBE09A3D
:2007A00099278DB30895262FE199FECF1CBA9FBB8EBB2DBB0FB6F894E29AE19A0FBE0196F3
:2007C0000895EE27FF27AA27BB2708C0A20FB31FE41FF51F220F331F441F551F969587958B
:2007E0007795679598F37040A9F7009799F7BD01CF010895052E97FB16F400940FD057FD2E
:2008000005D014D007FC02D046F408C050954095309521953F4F4F4F5F4F08959095809562
:20082000709561957F4F8F4F9F4F0895A1E21A2EAA1BBB1BFD010DC0AA1FBB1FEE1FFF1F87
:20084000A217B307E407F50720F0A21BB30BE40BF50B661F771F881F991F1A9469F7609547
:200860007095809590959B01AC01BD01CF0108950024552704C0080E591F880F991F0097ED
:2008800029F076956795B8F37105B9F7802D952F0895AA1BBB1B51E107C0AA1FBB1FA61765
:2008A000B70710F0A61BB70B881F991F5A95A9F780959095BC01CD010895F894FFCF190034
:1408C000FF00D007FF001900E8030E06AA0558020600DC0547
:00000001FF
