:200000001DC02CC02BC02AC029C076C027C026C025C024C0BBC022C021C020C01FC0000090
:200020000000380000000000370000000000360002020202020201020408102011241FBEBE
:20004000CFE5D2E0DEBFCDBF20E0A0E6B0E001C01D92AA36B207E1F7ABD038C1D1CF90E096
:20006000FC01EA5CFF4F2491FC01E05DFF4FE491EE2371F0F0E0EE0FFF1FE65DFF4FA59119
:20008000B491EC91E22381E090E021F480E0089580E090E00895CF93DF9390E0FC01EA5CC2
:2000A000FF4F2491805D9F4FFC0184918823D1F090E0880F991FFC01EC5DFF4FA591B49126
:2000C000FC01E25EFF4FC591D49161110EC09FB7F8948C91E22FE0958E238C932881E22397
:2000E000E8839FBFDF91CF9108958FB7F894EC91E22BEC938FBFF6CF1F920F920FB60F9224
:2001000011242F933F938F939F93AF93BF938091660090916700A0916800B091690030912B
:20012000650026E0230F2D3768F129E8230F0396A11DB11D209365008093660090936700E2
:20014000A0936800B09369008091610090916200A0916300B09164000196A11DB11D8093F4
:20016000610090936200A0936300B0936400BF91AF919F918F913F912F910F900FBE0F90E1
:200180001F9018950296A11DB11DD4CF1F920F920FB60F9211248F939F9388B390E189279F
:2001A00088BB9F918F910F900FBE0F901F90189583E08ABD83BF789489B7826089BF80E47F
:2001C0008CBD8FEF8DBD87EC80BF86E886B961E084E061DF60E082E05EDF60E080E05BDF11
:2001E00060E081E058DF90E080E05AD0809360008F3FB1F181BF12BE82E08ABD96B5933083
:2002000009F481E083BF8CB581608CBD81E389BD80E188BF89B7806189BF81E020DF019720
:20022000E1F780E01CDFEC0182E019DF2197E1F40197D1F4C091600090E080E031D0C817F9
:2002400021F06C2F90E080E033D0F0E0E0E0099581E005DF0197E1F38091600081BFDDCFE3
:2002600081B780936000C7CF82E0F9DEEC0180E0F6DE219741F4892B31F4809160008150DB
:2002800080936000E5CF82E0EADEEC0180E0E7DECD2BF1F60197E1F6809160008F5FF0CF8F
:2002A000E199FECF9FBB8EBBE09A99278DB30895262FE199FECF1CBA9FBB8EBB2DBB0FB67B
:1002C000F894E29AE19A0FBE01960895F894FFCF50
:00000001FF
